:020000040800F2
:1000000000000220852300080123000803230008C4
:10001000052300080723000809230008000000004A
:100020000000000000000000000000000B2300089A
:100030000D230008000000000F2300081123000812
:10004000D5230008D5230008D5230008D5230008B0
:10005000D5230008D5230008D5230008D5230008A0
:10006000D5230008D5230008D5230008D523000890
:10007000D5230008D5230008D5230008D523000880
:10008000D523000819230008D5230008D52300082C
:10009000D5230008D5230008D5230008D523000860
:1000A000D5230008D5230008D5230008D523000850
:1000B000D5230008D5230008D5230008D523000840
:1000C000D5230008D5230008D5230008D523000830
:1000D000D5230008D5230008D5230008D523000820
:1000E000D5230008D5230008D5230008D523000810
:1000F000D523000829230008D5230008D5230008AC
:10010000D5230008D5230008D5230008D5230008EF
:10011000D5230008D5230008D5230008D5230008DF
:10012000D5230008D5230008D5230008D5230008CF
:10013000D52300080000000000000000D5230008BF
:10014000D5230008D5230008D5230008D5230008AF
:10015000D5230008D5230008D5230008D52300089F
:10016000D5230008D5230008D5230008D52300088F
:10017000D5230008D5230008D5230008000000007F
:1001800000000000D523000800000000000000006F
:10019000D52300080000000000000000D52300085F
:1001A000000000000000000000000000D52300084F
:1001B000D5230008D5230008D5230008D52300083F
:0401C000D52300083B
:1001C40010B5054C237833B9044B13B10448AFF38D
:1001D40000800123237010BD0C00002000000000EB
:1001E400202400080C4B43B10C480D4910B5AFF363
:1001F40000800C48036823B910BD0A48036833B96A
:100204007047094B002BF7D0BDE810401847064B48
:10021400002BF5D0184700BF000000002024000880
:10022400100000200C0000200000000053B94AB95F
:10023400002908BF00281CBF4FF0FF314FF0FF30EA
:1002440000F07AB9ADF1080C6DE904CE00F006F8BF
:10025400DDF804E0DDE9022304B070472DE9F0473E
:100264008C460D460446089E002B51D18A421746FF
:100274006DD9B2FA82FEBEF1000F0BD0CEF1200C84
:1002840001FA0EF520FA0CFC02FA0EF74CEA050C02
:1002940000FA0EF44FEA174A250CBCFBFAF81FFAD1
:1002A40087F90AFB18CC45EA0C4508FB09F3AB4275
:1002B4000AD9ED1908F1FF3280F02381AB4240F2F4
:1002C4002081A8F102083D44ED1AA4B2B5FBFAF06E
:1002D4000AFB105544EA054400FB09F9A14509D974
:1002E400E41900F1FF3380F00A81A14540F207814F
:1002F40002383C44A4EB090440EA08400021002EE3
:1003040061D024FA0EF4002334607360BDE8F087F2
:100314008B4207D9002E54D0002186E821000846DC
:10032400BDE8F087B3FA83F1002940F08E80AB4238
:1003340002D3824200F2FA80841A65EB030501209D
:10034400AC46002E3FD086E81010BDE8F08712B905
:100354000127B7FBF2F7B7FA87FEBEF1000F34D1DD
:10036400EB1B3A0C1FFA87FC0121B3FBF2F8250CB6
:1003740002FB183345EA03450CFB08F3AB4207D9EB
:10038400ED1908F1FF3002D2AB4200F2D180804671
:10039400ED1AA3B2B5FBF2F002FB105543EA054493
:1003A4000CFB00FCA44507D9E41900F1FF3302D289
:1003B400A44500F2B8801846A4EB0C0440EA0840B7
:1003C4009DE731463046BDE8F087CEF1200405FABA
:1003D4000EF307FA0EF720FA04F83A0C25FA04F49F
:1003E40048EA0308B4FBF2F14FEA184502FB114452
:1003F4001FFA87FC45EA044501FB0CF3AB4200FA03
:100404000EF409D9ED1901F1FF3080F08A80AB4276
:1004140040F2878002393D44EB1A1FFA88F5B3FB9A
:10042400F2F002FB103345EA034500FB0CF3AB4248
:1004340007D9ED1900F1FF386FD2AB426DD90238FC
:100444003D44EB1A40EA01418FE7C1F1200722FA4B
:1004540007F88B4005FA01F448EA030320FA07FE83
:100464004FEA134CFD404EEA040EB5FBFCF94FEA8B
:100474001E440CFB19551FFA83F844EA054509FB91
:1004840008F4AC4202FA01F200FA01FA08D9ED18B4
:1004940009F1FF3043D2AC4241D9A9F102091D440C
:1004A4002D1B1FFA8EFEB5FBFCF00CFB10554EEA1B
:1004B400054400FB08F8A04507D9E41800F1FF350E
:1004C40029D2A04527D902381C4440EA0940A4EBAC
:1004D4000804A0FB02894C45C6464D4615D312D0EC
:1004E40056B1BAEB0E0364EB050404FA07F7CB40EC
:1004F4001F43CC40376074600021BDE8F087184684
:10050400F8E69046E0E6C245EAD2B8EB020E69EBA3
:1005140003050138E4E72846D7E7404691E78146DA
:10052400BEE7014678E702383C4445E7084608E759
:10053400A8F102083D442BE7704700BF08B50B4BF8
:100544001A6842F400721A601A6842F480621A60EF
:100554001A6842F480721A60032000F02FF8002019
:1005640001F08EFE01F0B8FD002008BD003C024001
:10057400034A1168034B1B780B441360704700BF98
:100584002800002000000020014B1868704700BFBD
:100594002800002038B50446FFF7F6FF0546B4F1FD
:1005A400FF3F02D0044B1B781C44FFF7EDFF401BB8
:1005B4008442FAD838BD00BF00000020074AD3683F
:1005C40023F4E0631B041B0C000200F4E0601843F6
:1005D40040F0BF6040F40030D060704700ED00E0B0
:1005E40030B4164BDB68C3F30223C3F10704042CB5
:1005F40028BF04241D1D062D17D9033B012505FA28
:1006040004F4013C2140994005FA03F3013B1340F3
:10061400194300280BDB0901C9B200F1604000F561
:10062400614080F8001330BC70470023E6E700F017
:100634000F000901C9B2024B1954F4E700ED00E0C0
:1006440014ED00E0420900F01F00012303FA00F05A
:10065400014B43F82200704700E100E00138B0F19B
:10066400807F0AD2064B5860F021064A82F8231094
:100674000020986007221A6070470120704700BF6D
:1006840010E000E000ED00E0042805D0054A1368FE
:1006940023F0040313607047024A136843F0040311
:1006A4001360704710E000E0704708B5FFF7FCFFE7
:1006B40008BD00000268D3B2103B0B49A1FB031331
:1006C4001B090A49C95CC165032B06D822F47F7251
:1006D40022F003028265806D704722F47F7222F05B
:1006E400030204328265F6E7ABAAAAAA38240008FA
:1006F400836A826992B9012B0AD01BB1022B01D003
:1007040000207047C36A13F0807F2CD1002070470B
:10071400C36AB3F1C07F28D000207047B2F5005FF0
:1007240005D0022B29D9032B15D000207047032BA9
:1007340003D8DFE803F01C041C0A00207047C36AD6
:1007440013F0807F15D100207047C36AB3F1C07FD6
:1007540011D000207047C36A13F0807F01D00120BC
:100764007047002070470120704701207047012026
:100774007047012070470120704701207047000036
:1007840070B50446FFF700FF002C5DD0054600233A
:1007940084F83430022384F835302268136823F057
:1007A4000103136023681A6812F0010F0AD0FFF7DF
:1007B400EBFE401B0528F5D920236365032084F84C
:1007C400350070BD1A68214911406268A06802436F
:1007D400E06802432069024360690243A06902435E
:1007E400E0690243206A02430A43616A042916D07D
:1007F4001A602668756925F00705636A1D43042B92
:1008040012D075612046FFF755FFE26D3F239340F8
:10081400836000206065012384F8353070BDE16A8F
:10082400206B01430A43E3E7A36A1D43E36A002BF9
:10083400E7D02046FFF75CFF0028E2D04023636541
:10084400012084F8350070BD012070BD3F8010F098
:10085400F0B583B0044600230193724B1D68724BBC
:10086400A3FB0535AD0A876D3E68C26D082393402E
:100874001E4210D003681A6812F0040F0BD01A68D5
:1008840022F004021A60C26D08239340BB60436DDA
:1008940043F001034365E26D012393401E4209D0F6
:1008A4002268526912F0800F04D0BB60636D43F07C
:1008B40002036365E26D042393401E4209D022685B
:1008C400126812F0020F04D0BB60636D43F004039E
:1008D4006365E26D102393401E4224D0226812689F
:1008E40012F0080F1FD0BB6023681A6812F4802F1F
:1008F4000DD01B6813F4002F04D1236C9BB1204648
:10090400984710E0A36C73B1204698470BE01A682F
:1009140012F4807F03D11A6822F008021A60236C53
:100924000BB120469847E26D202393401E4255D0D8
:100934002268126812F0100F50D0BB6094F8353062
:10094400DBB2052B0ED023681A6812F4802F33D043
:100954001B6813F4002F2AD1636C002B3ED0204671
:1009640098473BE02268136823F01603136022685B
:10097400536923F080035361236CA3B12268136885
:1009840023F008031360E26D3F239340BB60002310
:1009940084F83430012384F83530236D002B3FD0A4
:1009A400204698473CE0A36C002BE7D1EBE7E36BD0
:1009B400A3B12046984711E01A6812F4807F09D148
:1009C4001A6822F010021A60002384F834300123DC
:1009D40084F83530E36B0BB120469847636DFBB167
:1009E400636D13F0010F17D0052384F835302268A6
:1009F400136823F001031360019B013301939D42AB
:100A040004D323681B6813F0010FF5D1002384F885
:100A14003430012384F83530E36C0BB12046984719
:100A240003B0F0BD08000020B5814E1BF0B583B0C3
:100A3400002498E04FEAD40E0EF1080E50F82E2050
:100A440004F00706B6000F27B74022EA07020F6931
:100A540007FA06F6324340F82E2094E086681640E2
:100A6400CF6807FA0EF73E438660466826EA03031A
:100A74004E68C6F30016A64033434360C3681A4069
:100A84008B6803FA0EF31A43C2604B6813F0805F5D
:100A940068D000230193514B5A6C42F480425A644B
:100AA4005B6C03F480430193019BA3089E1C4C4A96
:100AB40052F8262004F003064FEA860E0F2606FAA3
:100AC4000EF622EA0602474FB84279D0464EB042AB
:100AD40078D006F58066B04276D006F58066B042DE
:100AE40074D006F58066B04272D006F58066B042D6
:100AF40070D006F58066B04260D0072606FA0EF67E
:100B040032430233364E46F82320384B1A68EB43FF
:100B140002EA03064F6817F4803F01D045EA020653
:100B2400324A1660526803EA02064F6817F4003F1F
:100B340001D045EA02062D4A5660926803EA02068D
:100B44004F6817F4801F01D045EA0206274A9660D1
:100B5400D26813404E6816F4001F01D045EA020320
:100B6400224AD36001340F2C36D80123A3400A68EB
:100B740003EA0205AB42F5D14A68022A3FF45AAFB0
:100B8400122A3FF457AF06684FEA440E032202FAD2
:100B94000EF2D24316404F6807F0030707FA0EF728
:100BA4003E4306604E68771E012F7FF657AF112E25
:100BB4003FF454AF122E7FF461AF4FE706269DE752
:100BC40000269BE7012699E7022697E7032695E787
:100BD400042693E7052691E703B0F0BD00380240F0
:100BE400003801400000024000040240003C014083
:100BF40012B90904816170478161704743695940A2
:100C04004161704710B582B000230193194B1A6CEF
:100C140042F080521A641B6C03F080530193019BD1
:100C24000122154B1A60FFF7AFFC0446134B5B68B7
:100C340013F4803F08D1FFF7A7FC001BB0F57A7FBF
:100C4400F4D9032002B010BD01220D4B1A60FFF746
:100C54009BFC0446094B5B6813F4003F07D1FFF784
:100C640093FC001BB0F57A7FF4D90320EAE7002057
:100C7400E8E700BF0038024040000E420070004028
:100C840044000E42002800F09D8070B504464F4B8E
:100C94001B6803F00F038B4209D2CBB24B4A13708B
:100CA400136803F00F03994201D0012070BD23683B
:100CB40013F0020F17D013F0040F04D0444A9368C2
:100CC40043F4E0539360236813F0080F04D0404AC0
:100CD400936843F4604393603D4A936823F0F003C0
:100CE400A068034393600D46236813F0010F32D0CC
:100CF4006368012B21D09A1E012A25D9344A12682F
:100D040012F0020F60D032498A6822F003021343C2
:100D14008B60FFF739FC06462D4B9B6803F00C03F0
:100D24006268B3EB820F16D0FFF72EFC801B41F2F2
:100D340088339842F0D9032070BD254A126812F412
:100D4400003FE0D1012070BD214A126812F0007FFB
:100D5400D9D1012070BD1D4B1B6803F00F039D42C8
:100D640009D2EAB2194B1A701B6803F00F039D42B3
:100D740001D0012070BD236813F0040F06D0144A7B
:100D8400936823F4E053E1680B439360236813F002
:100D9400080F07D00E4A936823F46043216943EA9D
:100DA400C103936000F05EF8094B9B68C3F303131F
:100DB400084AD35CD840084B1860002001F060FA60
:100DC400002070BD01207047012070BD003C02402E
:100DD400003802404C24000808000020014B186829
:100DE400704700BF0800002008B5FFF7F7FF044B69
:100DF4009B68C3F38223034AD35CD84008BD00BF79
:100E0400003802405C24000808B5FFF7E7FF044BF4
:100E14009B68C3F34233034AD35CD84008BD00BF88
:100E2400003802405C2400080F2303600B4B9A68CF
:100E340002F0030242609A6802F0F00282609A684B
:100E440002F4E052C2609B68DB0803F4E0530361E0
:100E5400034B1B6803F00F030B607047003802401C
:100E6400003C0240F8B55C4B9B6803F00C03082B74
:100E740006D00C2B5AD0042B00F0AC805748F8BD98
:100E8400554B5A6802F03F025B6813F4800F2AD076
:100E9400514B5B68C3F388131E4600275C01002591
:100EA400E41A65EB0705A90141EA9461A001001B5E
:100EB40061EB0501CB0043EA5073C400A01943EB76
:100EC40007014B0243EAD05344022046194600234B
:100ED400FFF7ACF9404B5B68C3F3014301335B009C
:100EE400B0FBF3F0F8BD3C4B5B68C3F388131E46BC
:100EF40000275C010025E41A65EB0705A90141EA16
:100F04009461A001001B61EB0501CB0043EA50731F
:100F1400C400A01943EB07018B0243EA90538402F7
:100F2400204619460023FFF781F9D3E72A4B5A6874
:100F340002F03F025B6813F4800F28D0264B5B68F5
:100F4400C3F388131E4600275C010025E41A65EBF1
:100F54000705A90141EA9461A001001B61EB0501A9
:100F6400CB0043EA5073C400A01943EB07014B02C2
:100F740043EAD0534402204619460023FFF756F9AA
:100F8400154B5B68C3F30273B0FBF3F0F8BD124B6F
:100F94005B68C3F388131E4600275C010025E41A2E
:100FA40065EB0705A90141EA9461A001001B61EB0F
:100FB4000501CB0043EA5073C400A01943EB0701B9
:100FC4008B0243EA90538402204619460023FFF71C
:100FD4002DF9D5E70248F8BD003802400024F4009A
:100FE40000127A0070B582B00446036813F0010F52
:100FF40041D0A64B9B6803F00C03042B32D0A34BC7
:101004009B6803F00C03082B27D0A04B9B6803F0CC
:101014000C030C2B59D06368B3F5803F5BD0B3F558
:10102400A02F5ED0994B1A6822F480321A601A6895
:1010340022F480221A606368002B5CD0FFF7A4FAC4
:101044000546924B1B6813F4003F14D1FFF79CFA3A
:10105400401B6428F5D903209DE18C4B5B6813F495
:10106400800FD2D0894B1B6813F4003F03D0636810
:10107400002B00F08D81236813F0020F67D0834B9F
:101084009B6813F00C0F4AD0804B9B6803F00C0351
:10109400082B3FD07D4B9B6803F00C030C2B48D0EE
:1010A400E368002B74D00122794B1A60FFF76CFAC5
:1010B4000546764B1B6813F0020F60D1FFF764FA04
:1010C400401B0228F5D9032065E1704B5B6813F4DB
:1010D400800FA0D0C6E76D4A136843F480331360D1
:1010E400A9E76A4B1A6842F480221A601A6842F42B
:1010F40080321A609FE7FFF747FA0546634B1B6887
:1011040013F4003FB7D0FFF73FFA401B6428F5D92A
:10111400032040E15D4B5B6813F4800FBAD15B4B55
:101124001B6813F0020F0AD0E368012B07D00120DB
:1011340031E1564B5B6813F4800FB1D1EFE7534AAA
:10114400136823F0F803216943EAC1031360236899
:1011540013F0080F40D0636963B301224D4B1A604A
:10116400FFF712FA0546494B5B6F13F0020F33D1B8
:10117400FFF70AFA401B0228F5D903200BE1434A82
:10118400136823F0F803216943EAC1031360DEE71F
:1011940000223F4B1A60FFF7F7F905463B4B1B68EB
:1011A40013F0020FD3D0FFF7EFF9401B0228F5D953
:1011B4000320F0E00022374B1A60FFF7E5F90546FB
:1011C400324B5B6F13F0020F06D0FFF7DDF9401BC3
:1011D4000228F5D90320DEE0236813F0040F79D048
:1011E4002A4B1B6C13F0805F33D100230193274BF0
:1011F4001A6C42F080521A641B6C03F08053019302
:10120400019B0125244B1B6813F4807F23D0A36822
:10121400012B34D0052B41D01C4B1A6F22F0010254
:101224001A671A6F22F004021A67A368002B3FD0D2
:10123400FFF7AAF90646154B1B6F13F0020F48D1AE
:10124400FFF7A2F9801B41F288339842F3D90320B7
:10125400A1E00025D6E7104A136843F480731360B5
:10126400FFF792F906460C4B1B6813F4807FCED12E
:10127400FFF78AF9801B0228F5D903208BE0034A83
:10128400136F43F001031367CFE700BF0038024038
:1012940000004742800E474200700040404B1A6FE6
:1012A40042F004021A671A6F42F001021A67BCE79F
:1012B400FFF76AF906463A4B1B6F13F0020F08D08A
:1012C400FFF762F9801B41F288339842F3D9032077
:1012D40061E0E5B9A369002B5CD0314A926802F061
:1012E4000C02082A59D0022B17D000222D4B1A6069
:1012F400FFF74AF904462A4B1B6813F0007F45D0D8
:10130400FFF742F9001B0228F5D9032043E0244AE1
:10131400136C23F080531364DCE70022214B1A6022
:10132400FFF732F905461E4B1B6813F0007F06D009
:10133400FFF72AF9401B0228F5D903202BE0E369C3
:10134400226A1343626A43EA8213A26A5208013A88
:1013540043EA0243E26A43EA0263226B43EA02730A
:101364000F4A536001220F4B1A60FFF70DF9044630
:101374000B4B1B6813F0007F06D1FFF705F9001B28
:101384000228F5D9032006E0002004E0002002E052
:10139400012000E0002002B070BD0120FBE700BF87
:1013A400003802406000474210B4036A046A24F023
:1013B40001040462846924F0F00444EA021223F074
:1013C4000A030B43826103625DF8044B704710B457
:1013D400036A23F0100303628469036A24F47044EB
:1013E40044EA023223F0A00343EA01138261036258
:1013F4005DF8044B7047836823F0700341F00701E4
:101404000B438360704710B4846824F47F4442EA39
:10141400032319430C4384605DF8044B704702684E
:10142400D36843F00103D3600268136843F00103F7
:1014340013600020704790F83830012B7DD010B530
:101444000446012380F83830022380F839300268DA
:10145400936823F47F4323F0770393600B68402B56
:1014640057D010D9702B3ED01FD8502B47D0602BAB
:1014740032D1CA6849680068FFF7A9FF6021206873
:10148400FFF7B9FF28E0102B4DD008D9202B4FD0FF
:10149400302B21D130210068FFF7ADFF1CE0DBB910
:1014A40000210068FFF7A7FF16E0B3F5805F0ED0B8
:1014B400B3F5005F10D1CB684A6889680068FFF70C
:1014C400A2FF2268936843F48043936004E00268B7
:1014D400936823F007039360012384F839300020D4
:1014E40084F8380010BDCB684A6889680068FFF743
:1014F4008AFF2268936843F077039360ECE7CA6835
:1015040049680068FFF750FF50212068FFF773FF18
:10151400E2E7CA6849680068FFF746FF402120688F
:10152400FFF769FFD8E710210068FFF764FFD3E7EE
:1015340020210068FFF75FFFCEE702207047704765
:1015440070477047704710B5044603681A6912F073
:10155400020F11D0DA6812F0020F0DD06FF0020200
:101564001A610123037603689B6913F0030F70D09B
:10157400FFF7E6FF0023237623681A6912F0040FAD
:1015840012D0DA6812F0040F0ED06FF004021A6160
:101594000223237623689B6913F4407F5FD020469F
:1015A400FFF7CEFF0023237623681A6912F0080F91
:1015B40012D0DA6812F0080F0ED06FF008021A6128
:1015C400042323762368DB6913F0030F4ED02046EF
:1015D400FFF7B6FF0023237623681A6912F0100F71
:1015E40012D0DA6812F0100F0ED06FF010021A61E8
:1015F400082323762368DB6913F4407F3DD020461B
:10160400FFF79EFF0023237623681A6912F0010F67
:1016140003D0DA6812F0010F36D123681A6912F088
:10162400800F03D0DA6812F0800F34D123681A696E
:1016340012F0400F03D0DA6812F0400F32D1236861
:101644001A6912F0200F03D0DA6812F0200F30D19B
:1016540010BDFFF774FF2046FFF773FF8AE72046AB
:10166400FFF76DFF2046FFF76CFF9BE72046FFF76F
:1016740066FF2046FFF765FFACE72046FFF75FFFF4
:101684002046FFF75EFFBDE76FF001021A612046B6
:1016940000F0DEFBC1E76FF080021A61204600F023
:1016A400E0F8C3E76FF040021A612046FFF74AFFF3
:1016B400C5E76FF020021A61204600F0D1F8C7E7B1
:1016C4000368454A90424AD0B0F1804F49D0A2F510
:1016D4007C42904247D002F58062904245D002F5A8
:1016E4008062904243D002F57842904235D0002285
:1016F4001AB123F070034A681343374A90423AD030
:10170400B0F1804F50D0A2F57C4290424ED002F509
:10171400806290424CD002F5806290424AD002F539
:101724007842904248D002F57052904246D002F579
:101734008062904244D002F58062904242D0A2F589
:101744009832904240D002F5806290423ED002F539
:10175400806290420DD000220EE00122C8E70122EF
:10176400C6E70122C4E70122C2E70122C0E7012241
:10177400BEE7012200E001221AB123F44073CA68D3
:10178400134303608B68C3620B688362124B9842F5
:1017940020D003F5806398421AD000230BB10B6963
:1017A40003630123436170470122E5E70122E3E774
:1017B4000122E1E70122DFE70122DDE70122DBE785
:1017C4000122D9E70122D7E70122D5E70122D3E795
:1017D4000123E3E70123E1E700000140A8B110B5CC
:1017E400044690F839305BB1022384F83930211D66
:1017F4002068FFF765FF012384F83930002010BD0D
:1018040080F8383000F0B2FCEEE70120704790F821
:101814003830012B22D030B4012280F83820022342
:1018240080F839300468636823F0700363600468E7
:1018340063680D682B4363600468A36823F0800326
:10184400A3600468A36849680B43A36080F8392047
:10185400002380F83830184630BC704702207047A7
:10186400704770472DE9F04704460268136923F472
:101874004053C1680B4313610168CB6823F41643DA
:1018840023F00C0382680069024360690243E06943
:1018940002431343CB602268536923F44073A16964
:1018A4000B435361E369B3F5004F62D0D4F8008071
:1018B400BB4B984500F01B8103F58063984500F00D
:1018C4001681FFF791FA00EB800000EB8000656859
:1018D400AD00B0FBF5F5B34FA7FB05356D092E013F
:1018E400FFF782FA00EB800000EB80006568AD0032
:1018F400B0FBF5FAFFF778FA00EB800000EB80000C
:101904006568AD00B0FBF5F5A7FB05356D094FF033
:10191400640909FB15A52D013235A7FB05356D09B1
:1019240005F0F0053544FFF75FFA00EB800000EBAB
:1019340080006668B600B0FBF6F6FFF755FA00EBD8
:10194400800000EB800063689B00B0FBF3F0A7FB12
:101954000030400909FB10694FEA091909F13209FD
:10196400A7FB0937C7F343172F44C8F80870BDE82D
:10197400F087D4F8008003F1804303F510439845C1
:101984005CD003F58063984558D0FFF72DFA00EB3F
:10199400800000EB800065686D00B0FBF5F5814FB9
:1019A400A7FB05356D092E01FFF71EFA00EB800039
:1019B40000EB800065686D00B0FBF5FAFFF714FAE0
:1019C40000EB800000EB800065686D00B0FBF5F56E
:1019D400A7FB05356D094FF0640909FB15A5ED005A
:1019E4003235A7FB05356D096D0005F4F8753544EE
:1019F400FFF7FAF900EB800000EB800066687600E0
:101A0400B0FBF6F6FFF7F0F900EB800000EB800086
:101A140063685B00B0FBF3F3A7FB03235B0909FBDB
:101A240013694FEAC90909F13209A7FB0937C7F35A
:101A340042172F44C8F80870BDE8F087FFF7E4F9AF
:101A440000EB800000EB800065686D00B0FBF5F5ED
:101A5400544FA7FB05356D092E01FFF7D5F900EBAF
:101A6400800000EB800065686D00B0FBF5FAFFF7BD
:101A7400CBF900EB800000EB800065686D00B0FBE3
:101A8400F5F5A7FB05356D094FF0640909FB15A5AC
:101A9400ED003235A7FB05356D096D0005F4F875C9
:101AA4003544FFF7B1F900EB800000EB8000666875
:101AB4007600B0FBF6F6FFF7A7F900EB800000EB29
:101AC400800063685B00B0FBF3F3A7FB03235B09AF
:101AD40009FB13694FEAC90909F13209A7FB093760
:101AE400C7F342172F44C8F80870BDE8F087FFF722
:101AF4008BF900EB800000EB80006568AD00B0FB63
:101B0400F5F5284FA7FB05356D092E01FFF77CF984
:101B140000EB800000EB80006568AD00B0FBF5FAD7
:101B2400FFF772F900EB800000EB80006568AD0000
:101B3400B0FBF5F5A7FB05356D094FF0640909FB0A
:101B440015A52D013235A7FB05356D0905F0F00506
:101B54003544FFF759F900EB800000EB800066681C
:101B6400B600B0FBF6F6FFF74FF900EB800000EB90
:101B7400800063689B00B0FBF3F3A7FB03235B09BE
:101B840009FB13694FEA091909F13209A7FB09375F
:101B9400C7F343172F44C8F80870BDE8F08700BFA7
:101BA400001001401F85EB512DE9F04105460F4619
:101BB40016469846069C2B681B6837EA03030CBF3D
:101BC40001230023B3421ED1B4F1FF3FF3D02CB163
:101BD400FEF7DAFCA0EB08008442ECD22A68D36852
:101BE40023F4D073D3602A68536923F0010353614B
:101BF400202385F8393085F83A30002385F83830C9
:101C04000320BDE8F0810020BDE8F08158B310B591
:101C1400044690F839300BB3242384F83930226811
:101C2400D36823F40053D3602046FFF71BFE2268D9
:101C3400136923F4904313612268536923F02A0340
:101C440053612268D36843F40053D3600020E063F7
:101C5400202384F8393084F83A3010BD80F83830C5
:101C640000F0BEFAD8E7012070472DE9F04182B0B8
:101C74001E4690F83930DBB2202B04D002231846DC
:101C840002B0BDE8F08104460D469046002955D0C7
:101C9400002A55D090F83830012B01D10223EEE709
:101CA400012380F838300023C363212380F83930BE
:101CB400FEF76AFC0746A4F82480A4F8268010E006
:101CC40000963B46002280212046FFF76DFF002846
:101CD40038D122682B88C3F3080353602369CBB936
:101CE4000235E38C9BB2BBB1E38C9BB2013B9BB24C
:101CF400E384A368B3F5805FE2D000963B460022FC
:101D040080212046FFF750FFF0B923682A785A60F3
:101D14000135E6E70135E4E700963B460022402121
:101D24002046FFF741FF034608B10323A7E720221B
:101D340084F83920002284F83820A0E701239EE7A4
:101D440001239CE703239AE7032398E7F0B58BB0BC
:101D5400002401942D4B1A6B42F004021A631A6B8F
:101D640002F004020192019A02941A6B42F080027A
:101D74001A631A6B02F080020292029A03941A6B9D
:101D840042F001021A631A6B02F001020392039AF1
:101D940004941A6B42F002021A631B6B03F00203F1
:101DA4000493049B1A4D22460A212846FEF720FF7D
:101DB400184F224620213846FEF71AFF4FF40053ED
:101DC4000593154B0693079405A92846FEF72EFEA6
:101DD400012605960694079405A92846FEF726FED3
:101DE4000A230593069607940323089305A9284616
:101DF400FEF71CFE2023059306960794089405A974
:101E04003846FEF713FE0BB0F0BD00BF00380240A9
:101E140000080240000002400000211000B583B019
:101E240000210191094B1A6B42F400121A631B6BD7
:101E340003F400130193019B0A461120FEF7D0FB23
:101E44001120FEF7FFFB03B05DF804FB00380240ED
:101E540008B50268034B9A4200D008BDFEF788FB20
:101E6400FBE700BF00200040FEE7000008B50B4878
:101E74000B4B03604FF4E133436000238360C36082
:101E840003610C2242618361C361FFF7BFFE00B9A5
:101E940008BD4FF493710348FFF7E6FF40010020AB
:101EA400004400406424000800B587B016484FF091
:101EB4008043036001234360002383605A22C2608D
:101EC4000361FFF78BFC98B906A94FF4805341F8DE
:101ED400103D0D48FFF7AFFA70B90023009301934A
:101EE40069460948FFF793FC50B907B05DF804FB55
:101EF400D6210648FFF7B8FFDC210448FFF7B4FFFA
:101F0400E3210248FFF7B0FF040100206424000825
:101F140000B587B01548164B036000234360836007
:101F2400C3600361FFF75AFC98B906A94FF48053C4
:101F340041F8103D0D48FFF77EFA70B90023009375
:101F4400019369460948FFF762FC50B907B05DF890
:101F540004FBF6210748FFF787FFFC210548FFF73C
:101F640083FF40F203110348FFF77EFF680000205F
:101F7400000400406424000808B50848084B0360C6
:101F8400002343608360C3600361FFF727FC00B94B
:101F940008BD40F213110348FFF766FF2C00002030
:101FA400004401406424000800B595B0002200926A
:101FB4002D4B196C41F0805119641B6C03F0805354
:101FC4000093009B0192294B196841F44041196028
:101FD4001B6803F440430193019B022307930121EF
:101FE4000A9110210B910D930E9208220F92B422A4
:101FF400109211931293139307A8FEF7F3FF38BBC3
:10200400FEF700FE40BB0F23029302230393002339
:1020140004934FF4A05305934FF480530693052182
:1020240002A8FEF72FFED8B9FEF7D8FE104BA3FB8B
:1020340000308009FEF712FB0420FEF725FB002286
:1020440011464FF0FF30FEF7CBFA15B05DF804FBF4
:10205400A4210848FFF708FFAB210648FFF704FF57
:10206400B9210448FFF700FF003802400070004027
:10207400D34D62106424000800B585B0FEF75EFA03
:10208400FFF792FFFFF762FEFFF7C8FEFFF7EEFED1
:10209400FFF70AFFFFF73CFFFFF76EFF0B4A01ABA8
:1020A40007CA03C323F8022B120C1A702021084814
:1020B400FEF7A4FD0A231A4601A90648FFF7D5FD39
:1020C4004FF47A70FEF766FAE8E700BF4024000890
:1020D400000002404001002010B582B000240094AA
:1020E400214B5A6C42F480425A645A6C02F4804286
:1020F4000092009A01941A6C42F080521A641B6C8C
:1021040003F080530193019B0320FEF757FA224604
:1021140021466FF00B00FEF763FA224621466FF06A
:102124000A00FEF75DFA224621466FF00900FEF729
:1021340057FA224621466FF00400FEF751FA224670
:1021440021466FF00300FEF74BFA224621466FF05A
:102154000100FEF745FA224621464FF0FF30FEF714
:102164003FFA02B010BD00BF0038024084B00368DB
:10217400B3F1804F07D0174A934211D0164A9342C5
:102184001BD004B0704700230193144B1A6C42F027
:1021940001021A641B6C03F001030193019BF0E735
:1021A400002302930D4B1A6C42F002021A641B6C5A
:1021B40003F002030293029BE3E700230393074B1C
:1021C4005A6C42F400325A645B6C03F40033039398
:1021D400039BD6E70004004000440140003802405D
:1021E4000268224B9A4200D0704730B587B004464B
:1021F4000025009503F5FA331A6C42F400321A6490
:102204001B6C03F400330093009B0C230193022303
:10221400029301230393032304930723059301A942
:102224001348FEF703FC1348134B03604FF000639D
:10223400436040238360C5604FF48063036145615C
:1022440085614FF48073C3614FF4003303624562C8
:10225400FEF796FA20B9074B23639C6307B030BDA1
:10226400C5210648FFF700FEF5E700BF0044004023
:1022740000000240A4000020A06002407424000872
:1022840010B588B0002201462D20FEF7A9F92D20B3
:10229400FEF7D8F900240194144B1A6C42F48072AE
:1022A4001A641B6C03F480730193019B02A903A8B5
:1022B400FEF7BAFDFEF798FD43000D48A0FB03238B
:1022C4009B0C013B0B480C4A026040F2E732C260AF
:1022D400436004618460FFF781FA10B1012008B003
:1022E40010BD0448FFF79BF8F9E700BF003802402F
:1022F40083DE1B4380010020002000407047FEE77E
:10230400FEE7FEE7FEE770477047704708B5FEF743
:10231400CCF908BD08B50248FEF79AFA08BD00BF1B
:10232400A400002008B50248FFF70DF908BD00BF5E
:10233400800100200F49D1F8883043F47003C1F8BC
:1023440088300D4B1A6842F001021A600020986030
:102354001A6822F0847222F480321A60074A5A60A2
:102364001A6822F480221A60D8604FF000638B60F0
:10237400704700BF00ED00E0003802401030002438
:10238400DFF834D0002103E00C4B5B584350043198
:102394000B480C4B42189A42F6D30B4A02E0002336
:1023A40042F8043B094B9A42F9D3FFF7C3FF00F00C
:1023B40011F8FFF761FE704700000220A024000816
:1023C400000000200C0000200C000020BC010020B4
:1023D400FEE7000070B50D4E0D4CA41BA4100025A3
:1023E400A54209D10B4E0C4C00F018F8A41BA41004
:1023F4000025A54205D170BD56F825309847013512
:10240400EEE756F8253098470135F2E7982400089E
:1024140098240008982400089C240008F8B500BFFC
:10242400F8BC08BC9E467047F8B500BFF8BC08BCB1
:042434009E46704709
:10243800000610160006101670726F6A65740000A8
:102448000A0D000000000000000000000102030463
:102458000607080900000000010203042E2E2F536E
:1024680072632F6D61696E2E630000002E2E2F534C
:1024780072632F73746D3332663478785F68616C79
:082488005F6D73702E6300000C
:08249000D0DDFF7F0100000018
:04249800E90100084E
:04249C00C50100086E
:0C24A00001000000100000000024F40007
:040000050800238547
:00000001FF
